{
  "_format": "hh-sol-artifact-1",
  "contractName": "BoringCompany",
  "sourceName": "contracts/BoringCompany.sol",
  "abi": [
    {
      "inputs": [],
      "stateMutability": "nonpayable",
      "type": "constructor"
    },
    {
      "inputs": [
        {
          "internalType": "address",
          "name": "_employee",
          "type": "address"
        },
        {
          "internalType": "uint256",
          "name": "_unlockDate",
          "type": "uint256"
        }
      ],
      "name": "addEmployee",
      "outputs": [],
      "stateMutability": "payable",
      "type": "function"
    },
    {
      "inputs": [],
      "name": "companyAdmin",
      "outputs": [
        {
          "internalType": "address",
          "name": "",
          "type": "address"
        }
      ],
      "stateMutability": "view",
      "type": "function"
    },
    {
      "inputs": [
        {
          "internalType": "address",
          "name": "",
          "type": "address"
        }
      ],
      "name": "employees",
      "outputs": [
        {
          "internalType": "uint256",
          "name": "amount",
          "type": "uint256"
        },
        {
          "internalType": "uint256",
          "name": "unlockDate",
          "type": "uint256"
        },
        {
          "internalType": "bool",
          "name": "paid",
          "type": "bool"
        }
      ],
      "stateMutability": "view",
      "type": "function"
    },
    {
      "inputs": [],
      "name": "withdraw",
      "outputs": [
        {
          "internalType": "bool",
          "name": "",
          "type": "bool"
        }
      ],
      "stateMutability": "nonpayable",
      "type": "function"
    }
  ],
  "bytecode": "0x60806040523480156200001157600080fd5b5033600160006101000a81548173ffffffffffffffffffffffffffffffffffffffff021916908373ffffffffffffffffffffffffffffffffffffffff160217905550620000c16040518060400160405280601581526020017f436f6d70616e7941646d696e20616464726573733a0000000000000000000000815250600160009054906101000a900473ffffffffffffffffffffffffffffffffffffffff16620000c760201b620004eb1760201c565b620002b3565b620001698282604051602401620000e0929190620001e8565b6040516020818303038152906040527f319af333000000000000000000000000000000000000000000000000000000007bffffffffffffffffffffffffffffffffffffffffffffffffffffffff19166020820180517bffffffffffffffffffffffffffffffffffffffffffffffffffffffff83818316178352505050506200016d60201b60201c565b5050565b60008151905060006a636f6e736f6c652e6c6f679050602083016000808483855afa5050505050565b620001a18162000238565b82525050565b6000620001b4826200021c565b620001c0818562000227565b9350620001d28185602086016200026c565b620001dd81620002a2565b840191505092915050565b60006040820190508181036000830152620002048185620001a7565b905062000215602083018462000196565b9392505050565b600081519050919050565b600082825260208201905092915050565b600062000245826200024c565b9050919050565b600073ffffffffffffffffffffffffffffffffffffffff82169050919050565b60005b838110156200028c5780820151818401526020810190506200026f565b838111156200029c576000848401525b50505050565b6000601f19601f8301169050919050565b610aef80620002c36000396000f3fe60806040526004361061003f5760003560e01c80633ccfd60b14610044578063caf587b01461006f578063d06789471461009a578063e7fd9a13146100d9575b600080fd5b34801561005057600080fd5b506100596100f5565b604051610066919061076f565b60405180910390f35b34801561007b57600080fd5b50610084610247565b6040516100919190610754565b60405180910390f35b3480156100a657600080fd5b506100c160048036038101906100bc91906105da565b61026d565b6040516100d09392919061085a565b60405180910390f35b6100f360048036038101906100ee9190610603565b6102a4565b005b6000806000803373ffffffffffffffffffffffffffffffffffffffff1673ffffffffffffffffffffffffffffffffffffffff1681526020019081526020016000209050600081600001541161017f576040517f08c379a0000000000000000000000000000000000000000000000000000000008152600401610176906107da565b60405180910390fd5b600015158160020160009054906101000a900460ff161515146101d7576040517f08c379a00000000000000000000000000000000000000000000000000000000081526004016101ce906107ba565b60405180910390fd5b60018160020160006101000a81548160ff0219169083151502179055503373ffffffffffffffffffffffffffffffffffffffff166108fc82600001549081150290604051600060405180830381858888f1935050505015801561023e573d6000803e3d6000fd5b50600191505090565b600160009054906101000a900473ffffffffffffffffffffffffffffffffffffffff1681565b60006020528060005260406000206000915090508060000154908060010154908060020160009054906101000a900460ff16905083565b600160009054906101000a900473ffffffffffffffffffffffffffffffffffffffff1673ffffffffffffffffffffffffffffffffffffffff163373ffffffffffffffffffffffffffffffffffffffff1614610334576040517f08c379a000000000000000000000000000000000000000000000000000000000815260040161032b906107fa565b60405180910390fd5b600160009054906101000a900473ffffffffffffffffffffffffffffffffffffffff1673ffffffffffffffffffffffffffffffffffffffff168273ffffffffffffffffffffffffffffffffffffffff1614156103c5576040517f08c379a00000000000000000000000000000000000000000000000000000000081526004016103bc9061083a565b60405180910390fd5b60008060003373ffffffffffffffffffffffffffffffffffffffff1673ffffffffffffffffffffffffffffffffffffffff1681526020019081526020016000206000015414610449576040517f08c379a00000000000000000000000000000000000000000000000000000000081526004016104409061081a565b60405180910390fd5b6040518060600160405280348152602001824261046691906108ad565b8152602001600015158152506000808473ffffffffffffffffffffffffffffffffffffffff1673ffffffffffffffffffffffffffffffffffffffff168152602001908152602001600020600082015181600001556020820151816001015560408201518160020160006101000a81548160ff0219169083151502179055509050505050565b610583828260405160240161050192919061078a565b6040516020818303038152906040527f319af333000000000000000000000000000000000000000000000000000000007bffffffffffffffffffffffffffffffffffffffffffffffffffffffff19166020820180517bffffffffffffffffffffffffffffffffffffffffffffffffffffffff8381831617835250505050610587565b5050565b60008151905060006a636f6e736f6c652e6c6f679050602083016000808483855afa5050505050565b6000813590506105bf81610a8b565b92915050565b6000813590506105d481610aa2565b92915050565b6000602082840312156105ec57600080fd5b60006105fa848285016105b0565b91505092915050565b6000806040838503121561061657600080fd5b6000610624858286016105b0565b9250506020610635858286016105c5565b9150509250929050565b61064881610903565b82525050565b61065781610915565b82525050565b600061066882610891565b610672818561089c565b935061068281856020860161094b565b61068b816109ad565b840191505092915050565b60006106a3600c8361089c565b91506106ae826109be565b602082019050919050565b60006106c6601a8361089c565b91506106d1826109e7565b602082019050919050565b60006106e9601c8361089c565b91506106f482610a10565b602082019050919050565b600061070c600f8361089c565b915061071782610a39565b602082019050919050565b600061072f601c8361089c565b915061073a82610a62565b602082019050919050565b61074e81610941565b82525050565b6000602082019050610769600083018461063f565b92915050565b6000602082019050610784600083018461064e565b92915050565b600060408201905081810360008301526107a4818561065d565b90506107b3602083018461063f565b9392505050565b600060208201905081810360008301526107d381610696565b9050919050565b600060208201905081810360008301526107f3816106b9565b9050919050565b60006020820190508181036000830152610813816106dc565b9050919050565b60006020820190508181036000830152610833816106ff565b9050919050565b6000602082019050818103600083015261085381610722565b9050919050565b600060608201905061086f6000830186610745565b61087c6020830185610745565b610889604083018461064e565b949350505050565b600081519050919050565b600082825260208201905092915050565b60006108b882610941565b91506108c383610941565b9250827fffffffffffffffffffffffffffffffffffffffffffffffffffffffffffffffff038211156108f8576108f761097e565b5b828201905092915050565b600061090e82610921565b9050919050565b60008115159050919050565b600073ffffffffffffffffffffffffffffffffffffffff82169050919050565b6000819050919050565b60005b8381101561096957808201518184015260208101905061094e565b83811115610978576000848401525b50505050565b7f4e487b7100000000000000000000000000000000000000000000000000000000600052601160045260246000fd5b6000601f19601f8301169050919050565b7f616c726561647920706169640000000000000000000000000000000000000000600082015250565b7f6f6e6c7920656d706c6f7965652063616e207769746864726177000000000000600082015250565b7f4f6e6c792061646d696e2063616e2061646420656d706c6f7965657300000000600082015250565b7f456d706c6f796565206578697374730000000000000000000000000000000000600082015250565b7f436f6d70616e7941646d696e206973206e6f7420656d706c6f79656500000000600082015250565b610a9481610903565b8114610a9f57600080fd5b50565b610aab81610941565b8114610ab657600080fd5b5056fea2646970667358221220d8df6050d14ad25cd82320b2ede6871185eff59a75a55b9d68f316a09a91e27a64736f6c63430008040033",
  "linkReferences": {},
  "deployedLinkReferences": {}
}